:020000040800F2
:1000000010070020110D0008ED010008EF010008A5
:10001000F3010008F7010008FB01000800000000E0
:10002000000000000000000000000000FF010008C8
:100030000102000800000000030200080502000899
:100040002B0D00082B0D00082B0D00082B0D0008B0
:100050002B0D00082B0D00082B0D00082B0D0008A0
:100060002B0D00082B0D00082B0D00082B0D000890
:100070002B0D00082B0D00082B0D00082B0D000880
:100080002B0D00082B0D00082B0D00082B0D000870
:100090002B0D00082B0D00082B0D00082B0D000860
:1000A0002B0D00082B0D00082B0D00082B0D000850
:1000B0002B0D0008130700082B0D00082B0D00085E
:1000C0002B0D00082B0D00082B0D00082B0D000830
:1000D0002B0D00082B0D0008D90C00082B0D000873
:1000E0002B0D00082B0D00082B0D00082B0D000810
:1000F0002B0D00082B0D00082B0D00082B0D000800
:100100002B0D00082B0D00082B0D00082B0D0008EF
:100110002B0D00082B0D00082B0D00082B0D0008DF
:100120002B0D00082B0D00082B0D00082B0D0008CF
:1001300000F002F800F03AF80AA090E8000C8244BF
:100140008344AAF10107DA4501D100F02FF8AFF29C
:10015000090EBAE80F0013F0010F18BFFB1A43F0A5
:1001600001031847A42D0000C42D0000103A24BF3D
:1001700078C878C1FAD8520724BF30C830C144BF0C
:1001800004680C607047000000230024002500264E
:10019000103A28BF78C1FBD8520728BF30C148BFEA
:1001A0000B6070471FB51FBD10B510BD02F020FCDD
:1001B0001146FFF7F7FF00F009F802F03EFC03B428
:1001C000FFF7F2FF03BC02F043FC000002F0C0FAAC
:1001D00007E00448044A127850F8221002480078D8
:1001E0008847F6E70400002000000020704700BFA9
:1001F000FEE700BFFEE700BFFEE700BFFEE7704777
:1002000070477047704700000CB5002001900090C7
:100210006C48006840F480306A49086000BF694853
:10022000006800F4003000900198401C0190009894
:1002300018B90198B0F5A06FF1D16248006800F4D8
:10024000003010B10120009001E0002000900098E3
:10025000012843D15C48006840F010005A4908600A
:100260000846006820F0030008600846006840F077
:100270000200086053484068524948600846406898
:1002800048600846406840F480604860084640681E
:1002900020F47C1048600846406840F4E81048604C
:1002A0000846006840F08070086000BF454800685C
:1002B00000F000700028F9D04248406820F00300A8
:1002C000404948600846406840F00200486000BF6E
:1002D0003C48406800F00C000828F9D10CBD10B56E
:1002E000FFF792FF10BD10B53648006840F00100DE
:1002F000344908600846406834490840314948603C
:1003000008460068324908402E49086008460068DF
:1003100020F4802008600846406820F4FE00486011
:100320004FF41F008860FFF7DAFF4FF000602949A3
:10033000086010BD10B5002100200022214B5B6831
:1003400003F00C0121B1042906D0082928D107E0C7
:10035000214B224C236027E01F4B204C236023E0DD
:10036000184B5B6803F47010164B5B6803F4803223
:10037000022303EB904022B9194B4343174C2360EF
:100380000DE0104B5B6803F4003323B1144B43437F
:10039000124C236003E0104B4343104C236003E0F6
:1003A0000D4B0E4C236000BF00BF064B5B68C3F3D0
:1003B00003130C4CE15C094B1B68CB40074C2360DA
:1003C00010BD000000100240002002400000FFF8B5
:1003D000FFFFF6FE08ED00E000127A003C0000206E
:1003E00000093D004000002008B50121042001F073
:1003F00039F80320ADF8000010208DF80300032029
:100400008DF802006946044800F070FD032102489F
:1004100000F019FE08BD00000008014000B589B0D9
:100420000121084601F02BF80121092001F01AF8FA
:100430000121C04800F02BFE4FF44060ADF82000D1
:1004400018208DF8230003208DF8220008A9BA484F
:1004500000F04CFD4FF48050ADF8200004208DF8E2
:10046000230008A9B44800F041FD4FF0804001F09E
:100470005DF842F22730ADF818000020ADF8140006
:10048000ADF81A00ADF8160005A94FF0804001F054
:1004900021F96020ADF804000120ADF8060000202D
:1004A000ADF80A00ADF80C0001A94FF0804001F052
:1004B000DDF901A94FF0804001F023FA0821C806B8
:1004C00001F0AAFD0821C80601F0AFFD012188074F
:1004D00001F05CFD0121880701F058FC09B000BD66
:1004E00000B589B0012140F60D0000F0BBFF4FF4CC
:1004F0007060ADF8200018208DF8230003208DF8DF
:10050000220008A98D4800F0F1FC4FF48050ADF8AE
:10051000200004208DF8230008A9884800F0E6FC9C
:100520004FF40050ADF8200004208DF8230008A9F6
:10053000814800F0DBFC824800F0F8FF42F22730EF
:10054000ADF818000020ADF81400ADF81A00ADF8B1
:10055000160005A97A4801F0BDF87020ADF8040036
:100560000120ADF806000020ADF80A00ADF80C003F
:1005700001A9734801F0EBF801A9714801F029F9CC
:1005800001A96F4801F072F901A96D4801F0B9F9AC
:1005900008216B4801F02AFD0821694801F02FFD70
:1005A0000821674801F038FD0821654801F03DFD4C
:1005B0000121634801F0EAFC0121614801F0F2FBEE
:1005C00001215F4801F0E2FB00215D4801F07AFE65
:1005D00042F227315A4801F077FE09B000BD00B55C
:1005E00089B00121042000F04AFF0121092000F018
:1005F00039FF4FF47070ADF8200018208DF82300FB
:1006000003208DF8220008A94B4800F06FFC48F247
:100610002000ADF8200004208DF8230008A94648EA
:1006200000F064FC474800F081FF42F22730ADF84B
:1006300018000020ADF81400ADF81A00ADF816004F
:1006400005A9404801F046F86020ADF804000120FB
:10065000ADF806000020ADF80A00ADF80C0001A9C5
:10066000384801F074F801A9364801F0B2F801A940
:10067000344801F0FBF801A9324801F042F90821A1
:10068000304801F0B3FC08212E4801F0B8FC0821E5
:100690002C4801F0C1FC08212A4801F0C6FC0121C8
:1006A000284801F073FC0121264801F06FFB09B0D6
:1006B00000BD7FB505460C460121022000F0DFFE9B
:1006C000214800F033FFADF80850ADF80440002099
:1006D000ADF80A00ADF8060001A91B4800F0FAFFCA
:1006E00001221146184801F06CFB1D208DF8000016
:1006F00000208DF8010003208DF8020001208DF804
:100700000300684600F029FB01210F4801F03EFB81
:100710007FBD10B501210C4801F001FE40B101215F
:10072000094801F00DFE09480088401C074908806F
:1007300010BD000000031800000C0140000801403B
:10074000002C014000080040000400405000002040
:100750002DE9F04104460D4624B1012C15D0022CA0
:1007600031D125E0F449284602F03CFA074602F070
:10077000E5F986B231464FF0804001F0A3FD00213B
:100780004FF0804001F0A0FD1EE000214FF08040BE
:1007900001F098FDE849284602F024FA074602F0E5
:1007A000CDF986B231464FF0804001F08DFD0BE06F
:1007B00000214FF0804001F085FD00214FF0804086
:1007C00001F082FD00E000BF00BFBDE8F0812DE92F
:1007D000F04104460D4624B1012C13D0022C2BD13C
:1007E00021E0D549284602F0FDF9074602F0A6F9B6
:1007F00086B23146D14801F061FD0021CF4801F0B9
:100800005FFD1AE00021CD4801F058FDCA49284695
:1008100002F0E8F9074602F091F986B23146C7487E
:1008200001F04EFD09E00021C44801F047FD002120
:10083000C24801F045FD00E000BF00BFBDE8F08107
:100840002DE9F04104460D4624B1012C14D0022CB0
:1008500032D127E0B849284602F0C4F9074602F031
:100860006DF986B23146B54801F02CFD42F22731D0
:10087000B24801F029FD20E00021B04801F022FD3E
:1008800029464FF07E5002F0ABFA8046AA4902F0AA
:10089000A9F9074602F052F986B23146A74801F09D
:1008A00013FD0AE00021A54801F00CFD42F22731BA
:1008B000A24801F009FD00E000BF00BFBDE8F081E3
:1008C0002DE9F04104460D4624B1012C13D0022C31
:1008D0002BD121E09849284602F084F9074602F01E
:1008E0002DF986B23146964801F0E8FC0021944883
:1008F00001F0E6FC1AE00021914801F0DFFC8E498E
:10090000284602F06FF9074602F018F986B2314620
:100910008B4801F0D5FC09E00021894801F0CEFCAC
:100920000021874801F0CCFC00E000BF00BFBDE81B
:10093000F0812DE9F04104460D4624B1012C13D07D
:10094000022C2BD121E07C49284602F04BF90746C6
:1009500002F0F4F886B23146794801F0B3FC002188
:10096000774801F0B1FC1AE00021754801F0AAFCBB
:100970007149284602F036F9074602F0DFF886B2E0
:1009800031466F4801F0A0FC09E000216C4801F0FD
:1009900099FC00216A4801F097FC00E000BF00BF0D
:1009A000BDE8F0812DE9F04106460D4617460020CE
:1009B00064490880002408E055F82410305D624B3B
:1009C00053F824209047601CC4B2052CF4DB11E0DE
:1009D0005C480088B8420DDB002408E055F824107C
:1009E000594850F8242002209047601CC4B2052CBE
:1009F000F4DB00E0ECE700BFBDE8F0812DE9F04159
:100A000005460E4614461CB1022C01D0042C3FD1E1
:100A1000285DE8B94D4951F824004FF07E5102F0AD
:100A20001FF807464A4850F82410384602F0A6F945
:100A300003D2002046F8240069E0444951F824001C
:100A40004FF07E5102F00CF8404941F824005EE07E
:100A5000285D01285BD13F4A52F824103B4A52F8E6
:100A6000240002F0BDF90746002102F087F803D206
:100A7000002046F824004AE0364A52F82410334A4F
:100A800052F8240002F0ACF9304941F824003EE06D
:100A9000285D01281DD12D4951F824004FF07E51C9
:100AA00001F0DEFF07462A4850F82410384602F0CD
:100AB00065F903D2002046F8240028E0234951F8C4
:100AC00024004FF07E5101F0CBFF204941F8240073
:100AD0001DE0285DD8B91F4A52F824101B4A52F86D
:100AE000240002F07DF90746002102F047F803D206
:100AF000002046F824000AE0164A52F82410134A4F
:100B000052F8240002F06CF9104941F82400BDE8C5
:100B1000F08170B505460E46002400BF09E0285D4F
:100B2000022804DA224631462846FFF767FF601C98
:100B3000C4B2052CF3DB70BD009C0C46002C0140B8
:100B400000080040500000205400002098000020C1
:100B5000CC2E00086800002010B56FF0040000F0F3
:100B600046F92E4800682E49B0FBF1F02D49087077
:100B70000846007800EB4001C1EBC0104FF6FF7152
:100B800001EAC0002849088010BD0146254A1278B4
:100B90004A434FF0E0235A6100229A611A461269D3
:100BA00042F001021A6100BF4FF0E022106900F02C
:100BB00001021AB100F48032002AF5D04FF0E02291
:100BC000126922F001024FF0E0231A6100229A61BB
:100BD00070470146144A12884A434FF0E0235A6195
:100BE00000229A611A46126942F001021A6100BF9E
:100BF0004FF0E022106900F001021AB100F48032D7
:100C0000002AF5D04FF0E022126922F001024FF0E5
:100C1000E0231A6100229A61704700003C00002026
:100C200000127A007C0000207E00002010B54FF4F6
:100C3000A06000F08DF810BD10B586B0044601210B
:100C4000480400F01CFC0121042000F00BFC2D489E
:100C500001F07AFB0420ADF8140003208DF8160093
:100C600018208DF8170005A9274800F03FF9082043
:100C7000ADF8140004208DF8170005A9224800F0F3
:100C800035F926208DF8000003208DF801008DF83D
:100C9000020001208DF80300684600F05EF8019420
:100CA0000020ADF80800ADF80A00ADF80C00ADF872
:100CB00010000C20ADF80E0001A9124801F087FBCE
:100CC000012240F225510F4801F019FC01210D4885
:100CD00001F009FC06B010BD10B5002440F225510A
:100CE000084801F0F1FC60B140F22551054801F0DF
:100CF00015FD044801F068FCC4B20E2C01DA03486B
:100D0000047010BD004400400008014000000020B5
:100D10000948804709480047FEE7FEE7FEE7FEE78F
:100D2000FEE7FEE7FEE7FEE7FEE7FEE704480549CB
:100D3000054A064B70470000E70200083101000831
:100D400010010020100700201003002010030020D5
:100D500031490143314A1160704770B500210023C9
:100D60000F22C47804B32D4C246804F4E064C4F565
:100D7000E064210AC1F10403CA40447804FA03F193
:100D80008478144021430901254C0678A155047844
:100D900004F01F050124AC4005786D11AD0005F18C
:100DA000E025C5F8004109E0047804F01F0501249E
:100DB000AC401C4D0678761145F8264070BD1A4AA5
:100DC0000A400243154B1B1F1A60704739B1134A82
:100DD000121D12680243114B1B1D1A6006E00F4AD8
:100DE000121D126882430D4B1B1D1A6070470428A8
:100DF00008D14FF0E021096941F004014FF0E022F1
:100E0000116107E04FF0E021096921F004014FF082
:100E1000E0221161704700000000FA050CED00E0CF
:100E200000E400E080E100E080FFFF1F10B5044611
:100E3000CC48844208D10121042000F02DFB002180
:100E4000042000F029FB46E0C748844208D1012174
:100E5000082000F021FB0021082000F01DFB3AE0F3
:100E6000C248844208D10121102000F015FB002166
:100E7000102000F011FB2EE0BD48844208D1012172
:100E8000202000F009FB0021202000F005FB22E0DB
:100E9000B848844208D10121402000F0FDFA002129
:100EA000402000F0F9FA16E0B348844208D101214D
:100EB000802000F0F1FA0021802000F0EDFA0AE035
:100EC000AE48844207D10121801500F0E5FA0021E7
:100ED000A01500F0E1FA10BD10B50121084600F0A0
:100EE000DBFA0021012000F0D7FA10BD2DE9F04116
:100EF000024600250026002000230024002791F848
:100F000003C00CF00F0591F803C00CF0100CBCF1FD
:100F1000000F03D091F802C04CEA050591F800C01B
:100F2000BCF1000F31D0146800202BE04FF0010C11
:100F30000CFA00F3B1F800C00CEA03069E4220D17F
:100F400083004FF00F0C0CFA03F7BC4305FA03FCC7
:100F50004CEA040491F803C0BCF1280F06D14FF00D
:100F6000010C0CFA00FCC2F814C00AE091F803C0AE
:100F7000BCF1480F05D14FF0010C0CFA00FCC2F88F
:100F800010C0401C0828D1D31460B1F800C0BCF1D7
:100F9000FF0F34DD546800202EE000F1080C4FF004
:100FA000010808FA0CF3B1F800C00CEA03069E42EF
:100FB00021D183004FF00F0C0CFA03F7BC4305FA64
:100FC00003FC4CEA040491F803C0BCF1280F05D1DE
:100FD00000F1080C08FA0CF8C2F8148091F803C06C
:100FE000BCF1480F07D100F1080C4FF0010808FAD6
:100FF0000CF8C2F81080401C0828CED35460BDE81D
:10100000F0814FF6FF710180022181700421C170CF
:1010100070470246002093680B400BB1012000E0AE
:10102000002070470146886880B270470246002061
:10103000D3680B400BB1012000E00020704701464F
:10104000C86880B2704701617047416170470AB15A
:10105000016100E041617047C16070474FF4803228
:101060000A438261816182618269826970470246B6
:101070000020434B18684FF68073184040EA021076
:1010800008433F4B186070473E49C8617047F0B550
:101090000A46002300240021002500F00046B6F196
:1010A000004F02D1364EF16901E0354E7168C0F350
:1010B000034583B200F44016B6F5401F08D121F075
:1010C00070612F4E766826F070662D4F7E6012E0BC
:1010D00000F48016B6F5801F06D1032606FA05F443
:1010E000A14341F0706106E0460D360103FA06F6B1
:1010F000B14341F0706122B1460D360103FA06F6A4
:10110000314300F00046B6F1004F02D11C4EF161B0
:1011100001E01B4E7160F0BD30B500228B071C0F43
:101120000F2303FA04F2164B08338C1053F82430C3
:101130009343134C08348D1044F8253023468C100B
:1011400053F824308C07240F00FA04F423430C4C8A
:1011500008348D1044F8253030BD0A49DC31086070
:101160007047000000080140000C014000100140E1
:101170000014014000180140001C01400020014003
:101180000000014000002042DF48006840F00100FC
:10119000DD49086008464068DC490840DA49486093
:1011A00008460068DA490840D749086008460068E0
:1011B00020F4802008600846406820F4FE00486063
:1011C0004FF41F0088607047CF49096821F48031CF
:1011D000CD4A11601146096821F480211160B0F5F3
:1011E000803F03D0B0F5802F0ED106E0C6490968D4
:1011F00041F48031C44A116007E0C349096841F4F1
:10120000A021C14A116000E000BF00BF704710B5C7
:1012100001460022002300204A11012A02D1BA4CC3
:10122000236806E0022A02D1B74C236A01E0B64CDB
:10123000636A01F01F02012494401C400CB101209C
:1012400000E0002010BD38B50020009000240025EB
:1012500000BF3120FFF7DBFF05460098401C0090DF
:101260000098B0F5A06F01D0002DF2D03120FFF72B
:10127000CEFF08B1012400E00024204638BD01461D
:101280000020A14A106820F0F80040EAC100106078
:101290007047A04908607047024600209A4B586882
:1012A00020F47C1042EA01031843974B58607047C2
:1012B00098490866704701460020934A506820F01C
:1012C00003000843506070478F48406800F00C00EE
:1012D0007047014600208C4A506820F0F000084317
:1012E0005060704701460020874A506820F4E06053
:1012F00008435060704701460020834A506820F43C
:10130000605040EAC1005060704729B17E4A527A6D
:1013100002437D4B5A7204E07B4A527A82437A4BF5
:101320005A7270477B49D8310860704701460020E7
:10133000754A506820F440400843506070470021CF
:10134000714A20321170704A82F82010012802D0B0
:1013500004280AD104E001216B4A2032117005E013
:101360000521694A2032117000E000BF00BF7047BC
:101370006949086070476449096A0143624A116219
:101380007047654944390860704730B50021002234
:10139000002400235C4D6D6805F00C0121B1042987
:1013A00005D0082923D105E05C4D056022E05B4DA6
:1013B00005601FE0544D6D6805F47012524D6D6864
:1013C00005F48034022505EB92421CB9544D554377
:1013D00005600BE04C4D6D6805F400351DB1504DB6
:1013E0005543056002E04D4D5543056002E04B4D0D
:1013F000056000BF00BF444D6D6805F0F0010909AC
:10140000484D6B5C0568DD4045603F4D6D6805F4F7
:10141000E061090A434D6B5C4568DD4085603A4DEB
:101420006D6805F46051C90A3E4D6B5C4568DD404E
:10143000C560354D6D6805F44041890B3A4D6B5CD4
:10144000C568B5FBF3F5056130BD29B12E4A526977
:1014500002432D4B5A6104E02B4A526982432A4BC6
:101460005A61704729B1284A92690243264B9A6112
:1014700004E0254A92698243234B9A61704729B15F
:10148000214AD2690243204BDA6104E01E4AD26944
:1014900082431D4BDA61704729B11B4AD26802436F
:1014A000194BDA6004E0184AD2688243164BDA60BE
:1014B000704729B1144A12690243134B1A6104E0C0
:1014C000114A12698243104B1A6170471249403920
:1014D000086070470F49C86470470B49C87170476E
:1014E0000948406A40F080700749486270470146E9
:1014F0000020054A92680A400AB1012000E000205D
:101500007047014988727047001002400000FFF8E0
:10151000FFFFF6FE000042428004424200127A00C1
:1015200000093D00800000209000002010B5044616
:10153000FE48844208D10121C014FFF7ADFF00210D
:10154000E014FFF7A9FFC4E0B4F1804F08D10121F6
:101550000846FFF7AEFF00210120FFF7AAFFB8E021
:10156000F348844208D101210220FFF7A2FF0021A5
:101570000220FFF79EFFACE0EE48844208D1012133
:101580000420FFF796FF00210420FFF792FFA0E060
:10159000E948844208D101210820FFF78AFF002191
:1015A0000820FFF786FF94E0E448844208D1012137
:1015B0001020FFF77EFF00211020FFF77AFF88E060
:1015C000DF48844208D101212020FFF772FF00216B
:1015D0002020FFF76EFF7CE0DA48844208D1012129
:1015E0004014FFF759FF00216014FFF755FF70E02A
:1015F000D548844209D10121C804FFF74DFF0021DD
:101600004FF40020FFF748FF63E0D048844209D13F
:1016100001210805FFF740FF00214FF48010FFF77C
:101620003BFF56E0CA48844209D101214805FFF733
:1016300033FF00214FF40010FFF72EFF49E0C548AB
:10164000844208D101214020FFF733FF00214020D0
:10165000FFF72FFF3DE0C048844208D101218020E0
:10166000FFF727FF00218020FFF723FF31E0BB4871
:10167000844208D101218015FFF71BFF0021A0152E
:10168000FFF717FF25E0B648844209D1012108047D
:10169000FFF702FF00214FF48030FFF7FDFE18E056
:1016A000B048844209D101214804FFF7F5FE00212A
:1016B0004FF40030FFF7F0FE0BE0AB48844208D156
:1016C00001218804FFF7E8FE00214FF48020FFF796
:1016D000E3FE10BD00220288944B98420ED0994B35
:1016E00098420BD0B0F1804F08D0914B984205D072
:1016F000904B984202D0904B984204D14FF68F7392
:101700001A404B881A438D4B984207D08C4B984215
:1017100004D04FF6FF431A40CB881A4302808B88CF
:1017200083850B880385814B98420BD0854B98426B
:1017300008D08B4B984205D08A4B984202D08A4BF6
:10174000984201D10B7A038601238382704770B5DA
:10175000002400220023058C4FF6FE7635400584D8
:10176000028C8388048B4FF68F752C40B51E2C405D
:101770000D882C43751E2A400D892A434D882A4323
:101780006A4DA8420BD06F4DA84208D0744DA842B4
:1017900005D0744DA84202D0734DA84213D14FF624
:1017A000F7752A404D892A434FF6FB752A408D88EC
:1017B0002A434FF6FF652B404FF6FF552B408D898E
:1017C0002B43CD892B4383800483CD888586028477
:1017D00070BD70B5002400220023058C4FF6EF7613
:1017E00035400584028C8388048B48F6FF752C40B5
:1017F0004FF6FF452C400D884FF6FF7606EA05258B
:101800002C434FF6DF752A400D8906EA05152A4359
:101810004D8806EA05152A43444DA84202D0494D99
:10182000A8421DD14FF67F752A404D894FF6FF76AD
:1018300006EA05152A434FF6BF752A408D8806EA49
:1018400005152A434FF6FF352B404FF2FF752B400D
:101850008D8906EA85052B43CD8906EA85052B434C
:1018600083800483CD880587028470BD70B5002411
:1018700000220023058C4FF6FF6635400584028C5C
:101880008388848B4FF68F752C404FF6FC752C4067
:101890000D882C434FF6FF552A400D894FF6FF76F1
:1018A00006EA05252A434D8806EA05252A431F4DE9
:1018B000A84202D0234DA8421DD14FF2FF752A4005
:1018C0004D894FF6FF7606EA05252A434FF6FF3588
:1018D0002A408D8806EA05252A434EF6FF752B40DF
:1018E0004DF6FF752B408D8906EA05152B43CD89F2
:1018F00006EA05152B4383808483CD88858702847F
:1019000070BD70B5002200230024058C4EF6FF76D2
:1019100035400584038C8488828B48F6FF752A4005
:101920004FF6FF452A400D8820E00000002C0140C2
:101930000004004000080040000C0040001000407F
:101940000014004000340140004C014000500140B0
:101950000054014000180040001C004000200040DE
:101960000040014000440140004801404FF6FF762E
:1019700006EA05252A434DF6FF752B400D8906EA38
:1019800005352B434D8806EA05352B43FA4DA84211
:1019900002D0FA4DA84208D14BF6FF752C408D8934
:1019A0004FF6FF7606EA85152C4384808283CD8826
:1019B000A0F84050038470BD828B4FF2FF331A4071
:1019C0008283828B4FF6FF7303EA01231A438283DB
:1019D0007047F0B50C461546002200210026078C02
:1019E0004EF6FF7C07EA0C070784828B018C4FF6CA
:1019F000FF7707EA043640F6FF473A404FF6FF7795
:101A000007EA05273A434FF6FF7707EA03373A43D9
:101A1000D94FB8420ED0D94FB8420BD0B0F1804F59
:101A200008D0D74FB84205D0D64FB84202D0D64FD3
:101A3000B84206D14DF6FF77394046F48057394316
:101A400005E047F6FF57394044F480573943828315
:101A50000184F0BD828B4FF6F3731A408283828B30
:101A60000A4382837047F0B50C46154600220021D8
:101A70000026078C4FF6FF6C07EA0C070784828B61
:101A8000018C4FF6FF7707EA04264FF60C773A40B1
:101A90004FF6FF7707EA03172F433A43B64FB84292
:101AA0000ED0B64FB8420BD0B0F1804F08D0B44F33
:101AB000B84205D0B34FB84202D0B34FB84206D1B6
:101AC0004FF6FF57394046F48077394305E04FF22F
:101AD000FF57394044F48077394382830184F0BD55
:101AE000028B4FF2FF331A400283028B4FF6FF73D3
:101AF00003EA01231A4302837047F0B50C461546EA
:101B0000002200210026078C4FF6EF7C07EA0C0725
:101B10000784028B018C4FF6FF7707EA041640F624
:101B2000FF473A404FF6FF7707EA03373A434FF64D
:101B3000FF7707EA05273A438F4FB8420ED08F4F01
:101B4000B8420BD0B0F1804F08D08D4FB84205D0CD
:101B50008C4FB84202D08C4FB84206D14FF6DF7797
:101B6000394046F01007394305E04FF65F773940BA
:101B700044F01007394302830184F0BD028B4FF615
:101B8000F3731A400283028B0A4302837047F0B555
:101B90000C46154600220021068C4FF6FE773E408B
:101BA0000684028B018C4FF60C7632407E1C06EACE
:101BB00003162E433243704EB0420ED06F4EB042E9
:101BC0000BD0B0F1804F08D06D4EB04205D06D4EB5
:101BD000B04202D06C4EB04206D14FF6FD76314095
:101BE00044F00106314305E04FF6F576314044F00C
:101BF0000106314302830184F0BD70B505460C46F1
:101C00005D4885420ED05D4885420BD0B5F1804FCE
:101C100008D05B48854205D05A48854202D05A48D0
:101C2000854200D100E000BF208850B92389A288F6
:101C300061882846FFF7ABFFE1882846FFF79EFF43
:101C400025E0208804280AD12389A28861882846B3
:101C5000FFF753FFE1882846FFF742FF17E020888F
:101C600008280AD12389A28861882846FFF7FBFE4D
:101C7000E1882846FFF7EEFE09E02389A288618803
:101C80002846FFF7A6FEE1882846FFF795FE70BDBF
:101C90002DE9F04105460C4600260127608808B969
:101CA000022600E00026A088012801D1022700E0DA
:101CB00001272088A0B92389A28861882846FFF7D8
:101CC00066FFE1882846FFF759FF23893A463146E7
:101CD0002846FFF712FFE1882846FFF701FF13E0CF
:101CE0002389A28861882846FFF707FFE1882846F4
:101CF000FFF7F6FE23893A4631462846FFF747FFAD
:101D0000E1882846FFF73AFFBDE8F0810A884B8852
:101D10001A438B881A43CB881A430B891A434B8981
:101D20001A438B891A43A0F8442070474FF6FF717D
:101D3000818000210180C1804180017270470021B3
:101D4000018041808180C180018141818181C18187
:101D50007047002101804180012181800021C180E4
:101D6000018170470021018041808180C180018113
:101D70004181818170470000002C01400034014006
:101D80000004004000080040000C004021B102881F
:101D900042F00102028004E002884FF6FE731A400E
:101DA0000280704731B1B0F8442042F40042A0F8FC
:101DB000442005E0B0F84420C2F30E02A0F844200D
:101DC00070471AB183890B43838102E083898B4377
:101DD000838170478182704741EA0203A0F848304E
:101DE00070471AB183890B43838102E083898B4357
:101DF0008381704701894FF6F87211400181704765
:101E00000A46002101894FF68F7319401143018161
:101E1000704730B504460D4629462046FFF7F0FFCF
:101E2000208940F00700208130BD2DE9F0410446B3
:101E30000D4616461F46602D06D13B46012231460F
:101E40002046FFF75AFE05E03B4601223146204678
:101E5000FFF79DFE29462046FFF7D2FF208940F07C
:101E600007002081BDE8F08130B50C4600210189D2
:101E7000C9B24FF6FF7505EA0325154325432943EB
:101E8000018130BD2DE9F04105460E4617469846C2
:101E9000002443463A4631462846FFF7E5FF2C89A1
:101EA0004FF6F870044044F007044FF68F7004407A
:101EB00044F070042C81BDE8F081F0B504460D4675
:101EC00016461F463B46324629462046FFF7CCFFC2
:101ED000208940F480402081F0BD018582827047D6
:101EE0000A46002101884FF68F7319401143018083
:101EF0007047F0B50C4615461E460021002200230F
:101F00000189028B038C4FF6F877394021434FF655
:101F1000FC473A4040F201173A434FF6DD773B4029
:101F20004FF6FF7707EA06172F433B4301810283F1
:101F30000384F0BD0A460021018B4FF68F731940D0
:101F40001143018370470A460021018B48F6FF7355
:101F500019404FF6FF7303EA0223194301837047C8
:101F60000A460021818B4FF68F73194011438183FC
:101F700070470A460021818B48F6FF7319404FF6DF
:101F8000FF7303EA022319438183704721B102885A
:101F900042F08002028004E002884FF67F731A400C
:101FA0000280704721B1828842F00402828004E0FE
:101FB00082884FF6FB731A408280704721B1828875
:101FC00042F00802828004E082884FF6F7731A40DC
:101FD0008280704721B1828842F00102828004E051
:101FE00082884FF6FE731A40828070470A460021AD
:101FF000018B4FF6F77319401143018370470A466E
:102000000021018B4FF2FF7319404FF6FF7303EA73
:1020100002231943018370470A460021818B4FF642
:10202000F77319401143818370470A460021818B61
:102030004FF2FF7319404FF6FF7303EA022319436F
:10204000818370470A460021018B4FF6FB731940CC
:102050001143018370470A460021018B4FF6FF337D
:1020600019404FF6FF7303EA0223194301837047B7
:102070000A460021818B4FF6FB731940114381837F
:1020800070470A460021818B4FF6FF3319404FF607
:10209000FF7303EA02231943818370470A46002134
:1020A000018B4FF67F7319401143018370470A4635
:1020B0000021018BC1F30E014FF6FF7303EA0223E7
:1020C0001943018370470A460021818B4FF67F73C5
:1020D00019401143818370470A460021818BC1F367
:1020E0000E014FF6FF7303EA022319438183704701
:1020F0000A460021018C4FF6FD73194011430184FB
:1021000070470A460021018C4FF6F77319401143BE
:10211000018470470A460021018C4FF6DF73194095
:102120004FF6FF7303EA02131943018470470A460E
:102130000021018C4FF67F7319404FF6FF7303EABD
:1021400002131943018470470A460021018C4FF69F
:10215000FF5319404FF6FF7303EA0223194301842A
:1021600070470A460021018C4FF2FF7319404FF669
:10217000FF7303EA02231943018470470A460021D2
:10218000018C4DF6FF7319404FF6FF7303EA0233DB
:1021900019430184704730B5002301248C40A3B259
:1021A000048C9C430484048C02FA01F5ADB22C43E8
:1021B000048430BD30B5002304248C40A3B2048CC9
:1021C0009C430484048C02FA01F5ADB22C430484D0
:1021D00030BD70B503460020002418461830012594
:1021E0008D40ACB21D8CA5431D8409B1082909D1CD
:1021F00000EB6100056825F0700505600568154372
:1022000005600EE00D1FC5F34E052844056825F452
:10221000E045056005684FF6FF7606EA022635437D
:10222000056070BD21B1028842F00202028004E024
:1022300002884FF6FD731A400280704721B1028870
:1022400042F00402028004E002884FF6FB731A4059
:102250000280704721B1828842F08002828004E0CF
:1022600082884FF67F731A408280704702884FF64B
:10227000F7731A40028002880A43028070478288FE
:102280004FF68F731A40828082880A43828070479B
:1022900002894FF6F8731A40028102890A430281CB
:1022A000704702894FF67F731A40028102890A4300
:1022B00002817047818470478185704781867047AD
:1022C0000187704781877047A0F8401070470288E7
:1022D0004FF6FF431A40028002880A43028070478B
:1022E0000146888E70470146088F70470146888FE7
:1022F00070470146B1F8400070470146888C70472E
:102300000146088D704702460020138A0B400BB12E
:10231000012000E000207047CA430282704730B5B8
:102320000246002000230024158A05EA010395894E
:1023300005EA010413B10CB1012000E0002030BD1A
:10234000CA4302827047000010B50446FB4884422D
:1023500009D101218803FFF79FF800214FF4804045
:10236000FFF79AF832E0F648844209D10121480487
:10237000FFF79FF800214FF40030FFF79AF825E0AF
:10238000F048844209D101218804FFF792F8002126
:102390004FF48020FFF78DF818E0EB48844209D114
:1023A0000121C804FFF785F800214FF40020FFF752
:1023B00080F80BE0E548844208D101210805FFF7C9
:1023C00078F800214FF48010FFF773F810BD2DE965
:1023D000F04786B005460E460024A24600BFA1463F
:1023E0000027B08900B100BF2F462C8A4CF6FF7041
:1023F0000440F08804432C82AC894EF6F31004406C
:10240000B08831890843718908430443AC81AC8AA0
:102410004FF6FF400440B0890443AC8201A8FEF7A8
:10242000B4FFC648874202D1DDF810A001E0DDF814
:102430000CA0A88900F4004040B10AEBCA0000EBF0
:102440000A1031684900B0FBF1F807E00AEBCA0056
:1024500000EB0A1031688900B0FBF1F86420B8FB8A
:10246000F0F004012009642101FB1089A88900F41F
:10247000004040B1322000EBC900B0FBF1F000F0A9
:102480000700044308E0322000EB09106421B0FB90
:10249000F1F000F00F0004432C8106B0BDE8F08796
:1024A0004FF41651016000218180C18001810C210F
:1024B000418100218181704710B502460020108AB9
:1024C0004FF2FF0318400B884C8823438C8823432A
:1024D000CC8823431843108210BD00210180418025
:1024E0008180C180704721B1828942F4005282818B
:1024F00004E082894DF6FF731A4082817047F0B57F
:102500000346002400260025002040F66A17B94241
:1025100000D100BF1846C1F3421401F01F06012785
:1025200007FA06F5012C01D10C3004E0022C01D190
:10253000103000E014301AB107682F43076002E042
:102540000768AF430760F0BD1AB1838A0B438382EB
:1025500002E0838A8B4383827047028A4FF6F073CE
:102560001A400282028A0A430282704782894FF22D
:10257000FF731A40828182890A438281704721B1A8
:10258000828942F00202828104E082894FF6FD7363
:102590001A4082817047028A4FF6DF731A40028226
:1025A000028A0A430282704721B1028A42F48042C1
:1025B000028204E0028A4BF6FF731A4002827047DF
:1025C000C1F308028280704701468888C0F3080082
:1025D0007047818941F0010181817047028BD2B23D
:1025E0000283028B42EA012202837047028B02F4CB
:1025F0007F420283028B0A430283704721B1828AA1
:1026000042F02002828204E0828A4FF6DF731A4091
:102610008282704721B1828A42F01002828204E0F5
:10262000828A4FF6EF731A408282704721B1828A04
:1026300042F00802828204E0828A4FF6F7731A4061
:102640008282704721B1828942F40042828103E094
:102650008289C2F30E028281704721B1828A42F4DC
:102660000062828204E0828A4FF2FF731A40828203
:102670007047828A4FF6FB731A408282828A0A432D
:102680008282704721B1828A42F00202828204E093
:10269000828A4FF6FD731A408282704702460020FC
:1026A000B1F5007F00D100BF13880B400BB10120B2
:1026B00000E00020704701F40072B2F5007F00D105
:1026C00000BFCA430280704770B502460024002351
:1026D0000025002040F66A16B14200D100BFC1F3C8
:1026E000421501F01F03012606FA03F3012D02D162
:1026F0009689334006E0022D02D1168A334001E06C
:10270000968A33400C12012606FA04F416883440E7
:1027100013B10CB1012000E0002070BD10B5002203
:10272000002340F66A14A14200D100BF0A1201241E
:102730009440A3B2DC43048010BD00000038014087
:102740000044004000480040004C00400050004061
:1027500010B5FEF701FAFEF769FAFDF745FE4FF4F2
:102760001650FEF769FAFDF7BBFEFDF757FEFDF7C1
:1027700036FF40F2CF216320FDF79BFF10BD60497B
:10278000096809B9012100E000215D4A11605D4935
:10279000D1F8841109B9012100E00021584A121D25
:1027A00011600121584A117070470021574A118069
:1027B000704730B587B0054655A103C9CDE905017D
:1027C0001421684600F0EAF8681C00EBD07149104B
:1027D000491ECCB200EBD0714910A0EB410105AA13
:1027E0001155022C03D14C484DF8240002E04B480F
:1027F0004DF824004248006808B9012000E000209C
:102800003F4908603F48D0F8840108B9012000E042
:1028100000203B49091D08603B480078012803D18E
:10282000694605A8FEF775F96422694605A8FEF712
:10283000B9F800203A49087007B030BD10B588B02B
:10284000044638A103C9CDE906011422374901A87D
:1028500000F072F82A48006808B9012000E0002062
:10286000274908602748D0F8840108B9012000E012
:1028700000202349091D086023480078012803D15E
:1028800001A906A8FEF745F9642201A906A8FEF7EA
:1028900089F800202249087008B010BD10B588B032
:1028A000044623A103C9CDE9060114221F491431AE
:1028B00001A800F041F81248006808B9012000E0C2
:1028C00000200F4908600F48D0F8840108B90120A2
:1028D00000E000200A49091D08600B480078012823
:1028E00003D101A906A8FEF714F9642201A906A8DC
:1028F000FEF758F800200A49087008B010BD000023
:10290000800121420000214294000020500000205C
:1029100003030303030000009A99993E3333333FC6
:10292000000000200100010001000000E02E00086E
:10293000000100010000000010B5203AC0F00B803B
:10294000B1E81850203AA0E81850B1E81850A0E8B3
:102950001850BFF4F5AF5FEA027C24BFB1E818500D
:10296000A0E8185044BF18C918C0BDE810405FEA7D
:10297000827C24BF51F8043B40F8043B08BF7047F9
:10298000D20728BF31F8023B48BF11F8012B28BFFE
:1029900020F8023B48BF00F8012B70474FF00002BF
:1029A00000B5134694469646203922BFA0E80C5045
:1029B000A0E80C50B1F12001BFF4F7AF090728BF20
:1029C000A0E80C5048BF0CC05DF804EB890028BF9C
:1029D00040F8042B08BF704748BF20F8022B11F0C5
:1029E000804F18BF00F8012B704770477047704741
:1029F000754600F029F8AE4605006946534620F0BA
:102A00000700854618B020B5FEF790F9BDE82040D4
:102A10004FF000064FF000074FF000084FF0000B9A
:102A200021F00701AC46ACE8C009ACE8C009ACE84D
:102A3000C009ACE8C0098D4670470446AFF300807A
:102A40002046FDF7BCFB000000487047AC000020AA
:102A500001491820ABBEFEE72600020070470000C7
:102A600090EA010F48BF81F0004100F1C081421A95
:102A70003CBF801A89184FEAD0524FF07F4C1CEAB5
:102A8000410FA2EBD15318BF9CEA026F00F03B80CC
:102A90004FF0004C4CEA00204CEA012121FA03FCE3
:102AA00010EB0C0C1ED202F1FF325FEA1C2040EB4F
:102AB000C25038BF70471CF07F0F4FEA400C18BF60
:102AC000BCF17F4F38BF7047C3F12003994008BF66
:102AD00020F00100BCF17F4F38BF7047A0F1C0402B
:102AE00000F047B94FEA3C00000A40EBC25028BF53
:102AF0001CF0FF0F4FEA400CE6D018BFBCF17F4F2F
:102B000038BF7047EAE79CEA026F05D010EA5C0F15
:102B100008BF00F00040704710B500F0E4F800BFB7
:102B200064FBBE3E401058BFC0F14040491058BF42
:102B3000C1F140418142EFF300807047C10DD1F1F6
:102B40009E0206DB4FEA002343F0004323FA02F023
:102B50007047004207D54FEA4001B1F1FE4F02D263
:102B60004FF00000704710B500F0BDF84992248086
:102B7000002070476FEA20007047000050EA010C07
:102B800000F113801CF5000F58BFBCF5000F01D4F5
:102B90008842704707D710F5000F58BF11F5000F96
:102BA00015D488427047894270471CF5000F04D540
:102BB000BCF5000FF7D5814270474FF0807C1CEBCD
:102BC000400F38BF1CEB410F01D28142704710B556
:102BD00000F089F8922449004FF000504FF08051E6
:102BE000FFF7A0BF4FF47F0C1CEAD0121EBF1CEAF7
:102BF000D11392EA0C0F93EA0C0F00F0478090EA91
:102C0000010F48BF42F480724FF0004C4CEA0020A4
:102C10004CEA012102EB0302A0FB0113A2F5000222
:102C2000002918BF43F001035B0028BF4FEA3303BC
:102C300042EB22425FEA132C4CEBC2502EBFBCEB9E
:102C4000436FB2F57C0F70474FEA036CBCF1004F45
:102C500008BF20F00100B2F57C0F38BF70470BD5DC
:102C600082F0FF0212F5803FC8BF704700F1C040FC
:102C7000D8BF00F00040704700F5000C5FEA4C0C34
:102C800048BF7047B0F1C04000F073B890EA010F40
:102C90000CEAD11348BF42F48072624538BF6345E5
:102CA00004D280EA010000F00040704710B500F047
:102CB0001AF800BF8900013E00F007B800F009B81B
:102CC0005FEA410C5FEA1C6C08D080EA010000F06A
:102CD00050B85FEA400C5FEA1C6CF6D14FF0004040
:102CE000A0F5800070470EF1020E2EF0030E5EF884
:102CF000044B244204D44FEA4102B2F17F4F11D871
:102D00004FEA4003B3F17F4F0CD80ED14FEAD07C8D
:102D1000B2F17F4F0CEB4C0C0CF1020C08BF4CEBEA
:102D2000D17C04E04FF0080C01E04FEAD17C0CEBC1
:102D30004C0324FA03F404F00704B4F1040C06D2A3
:102D40000EEB840CBDE810404CF0010C6047DFE84E
:102D50000CF0070802024FF00040A0F5800010BD03
:102D60000846420018BFD2F1807288BF00F00040D0
:102D700010BDFF2141EAD050C005704751EA000C58
:102D800000F113801CF5000F58BFBCF5000F01D4F3
:102D90008142704707D711F5000F58BF10F5000F9B
:102DA00015D481427047894270471CF5000F04D545
:102DB000BCF5000FF7D5884270474FF0807C1CEBC4
:102DC000410F38BF1CEB400F01D28842704780EAA8
:102DD000010081EA000180EA0100FFF7F8BE00006F
:102DE00090EA010F48BF81F000413FF540AE421A22
:102DF00004D882F00042A0EB020011444FEAD05206
:102E00004FF07F4C1CEA410FA2EBD15318BF9CEA54
:102E1000026F4AD04FF0004C4CEA00204CEA0121EE
:102E200021FA03FCB0EB0C0C0FD412F0FE0F36D0DD
:102E30005FEA4C001DD5001240EBC25038BF70470E
:102E40001CF03F0F18BF70470BE0A2F101025FEAD0
:102E50001C2040EBC25038BF70471CF07F0F18BFDA
:102E60007047C3F12003994014BF401E20F00100B9
:102E7000704780084FEA122308BF7047B0FA80FC01
:102E8000A2EB0C02CCF1280C60FA0CF093EA122FA2
:102E900004BF00EBC25070474FEAC3707047130A7B
:102EA0005FEADC1008BF7047F6E79CEA026F04D0C7
:102EB00010EA5C0F08BF0020704710B5FFF713FF42
:102EC00040DFF63E81F000407047000000002041E6
:102ED0000000104100001041000020410000C040EF
:102EE0000000403F3333333F9A99993E0000403F02
:102EF0003333333F0000403F3333333F9A99993E99
:102F00000000403F3333333F282F000800000020EB
:102F1000980000006C010008C02F000898000020F5
:102F2000780600008801000800000000AB270008B8
:102F3000B3270008B3270008B3270008B327000809
:102F4000B3270008B3270008B3270008B3270008F9
:102F5000B3270008B32700083D2800089D28000873
:102F60007F27000800A24A040000000000000000C3
:102F700001020304060708090000000051070008C9
:102F8000CF07000841080008C108000833090008FD
:102F9000E4388E3F0000903F0000803F0000803FFB
:102FA0000000803F00000000000000000102030458
:102FB00001020304060708090204060800000000D5
:0400000508000131BD
:00000001FF
